{
  "contractName": "Grimalkin",
  "abi": [
    {
      "inputs": [
        {
          "internalType": "string",
          "name": "name",
          "type": "string"
        },
        {
          "internalType": "string",
          "name": "symbol",
          "type": "string"
        }
      ],
      "stateMutability": "nonpayable",
      "type": "constructor"
    },
    {
      "anonymous": false,
      "inputs": [
        {
          "indexed": true,
          "internalType": "address",
          "name": "owner",
          "type": "address"
        },
        {
          "indexed": true,
          "internalType": "address",
          "name": "approved",
          "type": "address"
        },
        {
          "indexed": true,
          "internalType": "uint256",
          "name": "tokenId",
          "type": "uint256"
        }
      ],
      "name": "Approval",
      "type": "event"
    },
    {
      "anonymous": false,
      "inputs": [
        {
          "indexed": true,
          "internalType": "address",
          "name": "owner",
          "type": "address"
        },
        {
          "indexed": true,
          "internalType": "address",
          "name": "operator",
          "type": "address"
        },
        {
          "indexed": false,
          "internalType": "bool",
          "name": "approved",
          "type": "bool"
        }
      ],
      "name": "ApprovalForAll",
      "type": "event"
    },
    {
      "anonymous": false,
      "inputs": [
        {
          "indexed": true,
          "internalType": "address",
          "name": "previousOwner",
          "type": "address"
        },
        {
          "indexed": true,
          "internalType": "address",
          "name": "newOwner",
          "type": "address"
        }
      ],
      "name": "OwnershipTransferred",
      "type": "event"
    },
    {
      "anonymous": false,
      "inputs": [
        {
          "indexed": true,
          "internalType": "address",
          "name": "from",
          "type": "address"
        },
        {
          "indexed": true,
          "internalType": "address",
          "name": "to",
          "type": "address"
        },
        {
          "indexed": true,
          "internalType": "uint256",
          "name": "tokenId",
          "type": "uint256"
        }
      ],
      "name": "Transfer",
      "type": "event"
    },
    {
      "inputs": [
        {
          "internalType": "address",
          "name": "to",
          "type": "address"
        },
        {
          "internalType": "uint256",
          "name": "tokenId",
          "type": "uint256"
        }
      ],
      "name": "approve",
      "outputs": [],
      "stateMutability": "nonpayable",
      "type": "function"
    },
    {
      "inputs": [
        {
          "internalType": "address",
          "name": "owner",
          "type": "address"
        }
      ],
      "name": "balanceOf",
      "outputs": [
        {
          "internalType": "uint256",
          "name": "",
          "type": "uint256"
        }
      ],
      "stateMutability": "view",
      "type": "function",
      "constant": true
    },
    {
      "inputs": [
        {
          "internalType": "uint256",
          "name": "tokenId",
          "type": "uint256"
        }
      ],
      "name": "getApproved",
      "outputs": [
        {
          "internalType": "address",
          "name": "",
          "type": "address"
        }
      ],
      "stateMutability": "view",
      "type": "function",
      "constant": true
    },
    {
      "inputs": [
        {
          "internalType": "address",
          "name": "owner",
          "type": "address"
        },
        {
          "internalType": "address",
          "name": "operator",
          "type": "address"
        }
      ],
      "name": "isApprovedForAll",
      "outputs": [
        {
          "internalType": "bool",
          "name": "",
          "type": "bool"
        }
      ],
      "stateMutability": "view",
      "type": "function",
      "constant": true
    },
    {
      "inputs": [],
      "name": "name",
      "outputs": [
        {
          "internalType": "string",
          "name": "",
          "type": "string"
        }
      ],
      "stateMutability": "view",
      "type": "function",
      "constant": true
    },
    {
      "inputs": [],
      "name": "owner",
      "outputs": [
        {
          "internalType": "address",
          "name": "",
          "type": "address"
        }
      ],
      "stateMutability": "view",
      "type": "function",
      "constant": true
    },
    {
      "inputs": [
        {
          "internalType": "uint256",
          "name": "tokenId",
          "type": "uint256"
        }
      ],
      "name": "ownerOf",
      "outputs": [
        {
          "internalType": "address",
          "name": "",
          "type": "address"
        }
      ],
      "stateMutability": "view",
      "type": "function",
      "constant": true
    },
    {
      "inputs": [],
      "name": "renounceOwnership",
      "outputs": [],
      "stateMutability": "nonpayable",
      "type": "function"
    },
    {
      "inputs": [
        {
          "internalType": "address",
          "name": "from",
          "type": "address"
        },
        {
          "internalType": "address",
          "name": "to",
          "type": "address"
        },
        {
          "internalType": "uint256",
          "name": "tokenId",
          "type": "uint256"
        }
      ],
      "name": "safeTransferFrom",
      "outputs": [],
      "stateMutability": "nonpayable",
      "type": "function"
    },
    {
      "inputs": [
        {
          "internalType": "address",
          "name": "from",
          "type": "address"
        },
        {
          "internalType": "address",
          "name": "to",
          "type": "address"
        },
        {
          "internalType": "uint256",
          "name": "tokenId",
          "type": "uint256"
        },
        {
          "internalType": "bytes",
          "name": "_data",
          "type": "bytes"
        }
      ],
      "name": "safeTransferFrom",
      "outputs": [],
      "stateMutability": "nonpayable",
      "type": "function"
    },
    {
      "inputs": [
        {
          "internalType": "address",
          "name": "operator",
          "type": "address"
        },
        {
          "internalType": "bool",
          "name": "approved",
          "type": "bool"
        }
      ],
      "name": "setApprovalForAll",
      "outputs": [],
      "stateMutability": "nonpayable",
      "type": "function"
    },
    {
      "inputs": [
        {
          "internalType": "bytes4",
          "name": "interfaceId",
          "type": "bytes4"
        }
      ],
      "name": "supportsInterface",
      "outputs": [
        {
          "internalType": "bool",
          "name": "",
          "type": "bool"
        }
      ],
      "stateMutability": "view",
      "type": "function",
      "constant": true
    },
    {
      "inputs": [],
      "name": "symbol",
      "outputs": [
        {
          "internalType": "string",
          "name": "",
          "type": "string"
        }
      ],
      "stateMutability": "view",
      "type": "function",
      "constant": true
    },
    {
      "inputs": [
        {
          "internalType": "uint256",
          "name": "index",
          "type": "uint256"
        }
      ],
      "name": "tokenByIndex",
      "outputs": [
        {
          "internalType": "uint256",
          "name": "",
          "type": "uint256"
        }
      ],
      "stateMutability": "view",
      "type": "function",
      "constant": true
    },
    {
      "inputs": [
        {
          "internalType": "address",
          "name": "owner",
          "type": "address"
        },
        {
          "internalType": "uint256",
          "name": "index",
          "type": "uint256"
        }
      ],
      "name": "tokenOfOwnerByIndex",
      "outputs": [
        {
          "internalType": "uint256",
          "name": "",
          "type": "uint256"
        }
      ],
      "stateMutability": "view",
      "type": "function",
      "constant": true
    },
    {
      "inputs": [],
      "name": "totalSupply",
      "outputs": [
        {
          "internalType": "uint256",
          "name": "",
          "type": "uint256"
        }
      ],
      "stateMutability": "view",
      "type": "function",
      "constant": true
    },
    {
      "inputs": [
        {
          "internalType": "address",
          "name": "from",
          "type": "address"
        },
        {
          "internalType": "address",
          "name": "to",
          "type": "address"
        },
        {
          "internalType": "uint256",
          "name": "tokenId",
          "type": "uint256"
        }
      ],
      "name": "transferFrom",
      "outputs": [],
      "stateMutability": "nonpayable",
      "type": "function"
    },
    {
      "inputs": [
        {
          "internalType": "address",
          "name": "newOwner",
          "type": "address"
        }
      ],
      "name": "transferOwnership",
      "outputs": [],
      "stateMutability": "nonpayable",
      "type": "function"
    },
    {
      "inputs": [
        {
          "internalType": "uint256",
          "name": "numCats",
          "type": "uint256"
        }
      ],
      "name": "reserveGrimalkin",
      "outputs": [],
      "stateMutability": "nonpayable",
      "type": "function"
    },
    {
      "inputs": [
        {
          "internalType": "uint256",
          "name": "numCats",
          "type": "uint256"
        }
      ],
      "name": "mintGrimalkin",
      "outputs": [],
      "stateMutability": "payable",
      "type": "function",
      "payable": true
    },
    {
      "inputs": [
        {
          "internalType": "uint256",
          "name": "_maxClaimable",
          "type": "uint256"
        },
        {
          "internalType": "uint256",
          "name": "_geneToMutateId",
          "type": "uint256"
        },
        {
          "internalType": "uint256",
          "name": "_mutatedGene",
          "type": "uint256"
        },
        {
          "internalType": "uint256",
          "name": "_difficulty",
          "type": "uint256"
        },
        {
          "internalType": "uint256",
          "name": "_kiCost",
          "type": "uint256"
        }
      ],
      "name": "startQuest",
      "outputs": [],
      "stateMutability": "nonpayable",
      "type": "function"
    },
    {
      "inputs": [
        {
          "internalType": "uint256",
          "name": "questId",
          "type": "uint256"
        }
      ],
      "name": "endQuest",
      "outputs": [],
      "stateMutability": "nonpayable",
      "type": "function"
    },
    {
      "inputs": [
        {
          "internalType": "uint256",
          "name": "tokenId",
          "type": "uint256"
        },
        {
          "internalType": "uint256",
          "name": "questId",
          "type": "uint256"
        },
        {
          "internalType": "uint256",
          "name": "numAttempts",
          "type": "uint256"
        }
      ],
      "name": "attemptQuest",
      "outputs": [],
      "stateMutability": "nonpayable",
      "type": "function"
    },
    {
      "inputs": [
        {
          "internalType": "uint256",
          "name": "_kiToReplenish",
          "type": "uint256"
        }
      ],
      "name": "startKiPotion",
      "outputs": [],
      "stateMutability": "nonpayable",
      "type": "function"
    },
    {
      "inputs": [
        {
          "internalType": "uint256",
          "name": "potionId",
          "type": "uint256"
        }
      ],
      "name": "endKiPotion",
      "outputs": [],
      "stateMutability": "nonpayable",
      "type": "function"
    },
    {
      "inputs": [
        {
          "internalType": "uint256",
          "name": "potionId",
          "type": "uint256"
        },
        {
          "internalType": "uint256",
          "name": "tokenId",
          "type": "uint256"
        }
      ],
      "name": "claimKiPotion",
      "outputs": [],
      "stateMutability": "nonpayable",
      "type": "function"
    },
    {
      "inputs": [
        {
          "internalType": "uint256",
          "name": "dropQuota_",
          "type": "uint256"
        }
      ],
      "name": "setDropQuota",
      "outputs": [],
      "stateMutability": "nonpayable",
      "type": "function"
    },
    {
      "inputs": [
        {
          "internalType": "string",
          "name": "baseURI_",
          "type": "string"
        }
      ],
      "name": "setBaseURI",
      "outputs": [],
      "stateMutability": "nonpayable",
      "type": "function"
    },
    {
      "inputs": [
        {
          "internalType": "uint256",
          "name": "tokenId",
          "type": "uint256"
        }
      ],
      "name": "tokenURI",
      "outputs": [
        {
          "internalType": "string",
          "name": "",
          "type": "string"
        }
      ],
      "stateMutability": "view",
      "type": "function",
      "constant": true
    },
    {
      "inputs": [],
      "name": "withdraw",
      "outputs": [],
      "stateMutability": "nonpayable",
      "type": "function"
    },
    {
      "inputs": [
        {
          "internalType": "uint256",
          "name": "id",
          "type": "uint256"
        }
      ],
      "name": "getCat",
      "outputs": [
        {
          "components": [
            {
              "internalType": "uint256",
              "name": "id",
              "type": "uint256"
            },
            {
              "internalType": "uint256",
              "name": "dna",
              "type": "uint256"
            },
            {
              "internalType": "uint256",
              "name": "ki",
              "type": "uint256"
            }
          ],
          "internalType": "struct Grimalkin.Cat",
          "name": "",
          "type": "tuple"
        }
      ],
      "stateMutability": "view",
      "type": "function",
      "constant": true
    },
    {
      "inputs": [
        {
          "internalType": "address",
          "name": "owner",
          "type": "address"
        }
      ],
      "name": "getAllCatsByOwner",
      "outputs": [
        {
          "components": [
            {
              "internalType": "uint256",
              "name": "id",
              "type": "uint256"
            },
            {
              "internalType": "uint256",
              "name": "dna",
              "type": "uint256"
            },
            {
              "internalType": "uint256",
              "name": "ki",
              "type": "uint256"
            }
          ],
          "internalType": "struct Grimalkin.Cat[]",
          "name": "",
          "type": "tuple[]"
        }
      ],
      "stateMutability": "view",
      "type": "function",
      "constant": true
    },
    {
      "inputs": [
        {
          "internalType": "uint256",
          "name": "id",
          "type": "uint256"
        }
      ],
      "name": "getQuest",
      "outputs": [
        {
          "components": [
            {
              "internalType": "uint256",
              "name": "id",
              "type": "uint256"
            },
            {
              "internalType": "bool",
              "name": "isActive",
              "type": "bool"
            },
            {
              "internalType": "uint256",
              "name": "maxClaimable",
              "type": "uint256"
            },
            {
              "internalType": "uint256",
              "name": "geneToMutateId",
              "type": "uint256"
            },
            {
              "internalType": "uint256",
              "name": "mutatedGene",
              "type": "uint256"
            },
            {
              "internalType": "uint256",
              "name": "difficulty",
              "type": "uint256"
            },
            {
              "internalType": "uint256",
              "name": "kiCost",
              "type": "uint256"
            },
            {
              "internalType": "uint256",
              "name": "claimed",
              "type": "uint256"
            }
          ],
          "internalType": "struct Grimalkin.Quest",
          "name": "",
          "type": "tuple"
        }
      ],
      "stateMutability": "view",
      "type": "function",
      "constant": true
    },
    {
      "inputs": [],
      "name": "getAllQuests",
      "outputs": [
        {
          "components": [
            {
              "internalType": "uint256",
              "name": "id",
              "type": "uint256"
            },
            {
              "internalType": "bool",
              "name": "isActive",
              "type": "bool"
            },
            {
              "internalType": "uint256",
              "name": "maxClaimable",
              "type": "uint256"
            },
            {
              "internalType": "uint256",
              "name": "geneToMutateId",
              "type": "uint256"
            },
            {
              "internalType": "uint256",
              "name": "mutatedGene",
              "type": "uint256"
            },
            {
              "internalType": "uint256",
              "name": "difficulty",
              "type": "uint256"
            },
            {
              "internalType": "uint256",
              "name": "kiCost",
              "type": "uint256"
            },
            {
              "internalType": "uint256",
              "name": "claimed",
              "type": "uint256"
            }
          ],
          "internalType": "struct Grimalkin.Quest[]",
          "name": "",
          "type": "tuple[]"
        }
      ],
      "stateMutability": "view",
      "type": "function",
      "constant": true
    },
    {
      "inputs": [
        {
          "internalType": "uint256",
          "name": "questId",
          "type": "uint256"
        },
        {
          "internalType": "uint256",
          "name": "tokenId",
          "type": "uint256"
        }
      ],
      "name": "getQuestRewardClaimed",
      "outputs": [
        {
          "internalType": "bool",
          "name": "",
          "type": "bool"
        }
      ],
      "stateMutability": "view",
      "type": "function",
      "constant": true
    }
  ],
  "bytecode": "0x60806040523480156200001157600080fd5b5060405162005c1d38038062005c1d8339818101604052810190620000379190620002ad565b81818160009080519060200190620000519291906200018b565b5080600190805190602001906200006a9291906200018b565b5050506200008d62000081620000bd60201b60201c565b620000c560201b60201c565b60405180602001604052806000815250600c9080519060200190620000b49291906200018b565b50505062000451565b600033905090565b6000600a60009054906101000a900473ffffffffffffffffffffffffffffffffffffffff16905081600a60006101000a81548173ffffffffffffffffffffffffffffffffffffffff021916908373ffffffffffffffffffffffffffffffffffffffff1602179055508173ffffffffffffffffffffffffffffffffffffffff168173ffffffffffffffffffffffffffffffffffffffff167f8be0079c531659141344cd1fd0a4f28419497f9722a3daafe3b4186f6b6457e060405160405180910390a35050565b8280546200019990620003bd565b90600052602060002090601f016020900481019282620001bd576000855562000209565b82601f10620001d857805160ff191683800117855562000209565b8280016001018555821562000209579182015b8281111562000208578251825591602001919060010190620001eb565b5b5090506200021891906200021c565b5090565b5b80821115620002375760008160009055506001016200021d565b5090565b6000620002526200024c8462000354565b62000320565b9050828152602081018484840111156200026b57600080fd5b6200027884828562000387565b509392505050565b600082601f8301126200029257600080fd5b8151620002a48482602086016200023b565b91505092915050565b60008060408385031215620002c157600080fd5b600083015167ffffffffffffffff811115620002dc57600080fd5b620002ea8582860162000280565b925050602083015167ffffffffffffffff8111156200030857600080fd5b620003168582860162000280565b9150509250929050565b6000604051905081810181811067ffffffffffffffff821117156200034a576200034962000422565b5b8060405250919050565b600067ffffffffffffffff82111562000372576200037162000422565b5b601f19601f8301169050602081019050919050565b60005b83811015620003a75780820151818401526020810190506200038a565b83811115620003b7576000848401525b50505050565b60006002820490506001821680620003d657607f821691505b60208210811415620003ed57620003ec620003f3565b5b50919050565b7f4e487b7100000000000000000000000000000000000000000000000000000000600052602260045260246000fd5b7f4e487b7100000000000000000000000000000000000000000000000000000000600052604160045260246000fd5b6157bc80620004616000396000f3fe6080604052600436106102045760003560e01c80634f6ccce711610118578063a22cb465116100a0578063c79432741161006f578063c794327414610778578063c87b56dd146107a1578063e985e9c5146107de578063f2fde38b1461081b578063fce559321461084457610204565b8063a22cb465146106e1578063b88d4fde1461070a578063b979713714610733578063c47a484c1461075c57610204565b806370a08231116100e757806370a082311461060e578063715018a61461064b57806386ef3cb7146106625780638da5cb5b1461068b57806395d89b41146106b657610204565b80634f6ccce71461054257806355f804b31461057f5780636352211e146105a8578063683670a4146105e557610204565b80632f745c591161019b5780633ebbdac91161016a5780633ebbdac91461043957806342842e0e1461046257806349f86f341461048b5780634bf85d06146104c85780634da2b48e1461050557610204565b80632f745c59146103915780633b592702146103ce5780633bb659a2146103f75780633ccfd60b1461042257610204565b806318160ddd116101d757806318160ddd146102d75780631bd47b6d14610302578063235dad5b1461033f57806323b872dd1461036857610204565b806301ffc9a71461020957806306fdde0314610246578063081812fc14610271578063095ea7b3146102ae575b600080fd5b34801561021557600080fd5b50610230600480360381019061022b9190613bdf565b61086d565b60405161023d9190614ca3565b60405180910390f35b34801561025257600080fd5b5061025b6108e7565b6040516102689190614cbe565b60405180910390f35b34801561027d57600080fd5b5061029860048036038101906102939190613c72565b610979565b6040516102a59190614bf8565b60405180910390f35b3480156102ba57600080fd5b506102d560048036038101906102d09190613ba3565b6109fe565b005b3480156102e357600080fd5b506102ec610b16565b6040516102f991906150b7565b60405180910390f35b34801561030e57600080fd5b5061032960048036038101906103249190613a38565b610b23565b6040516103369190614c5f565b60405180910390f35b34801561034b57600080fd5b5061036660048036038101906103619190613c72565b610c62565b005b34801561037457600080fd5b5061038f600480360381019061038a9190613a9d565b610d4b565b005b34801561039d57600080fd5b506103b860048036038101906103b39190613ba3565b610dab565b6040516103c591906150b7565b60405180910390f35b3480156103da57600080fd5b506103f560048036038101906103f09190613c72565b610e50565b005b34801561040357600080fd5b5061040c610ed6565b6040516104199190614c81565b60405180910390f35b34801561042e57600080fd5b50610437610f97565b005b34801561044557600080fd5b50610460600480360381019061045b9190613c72565b611069565b005b34801561046e57600080fd5b5061048960048036038101906104849190613a9d565b611178565b005b34801561049757600080fd5b506104b260048036038101906104ad9190613c72565b611198565b6040516104bf919061509b565b60405180910390f35b3480156104d457600080fd5b506104ef60048036038101906104ea9190613c9b565b61125c565b6040516104fc9190614ca3565b60405180910390f35b34801561051157600080fd5b5061052c60048036038101906105279190613c72565b611298565b6040516105399190615080565b60405180910390f35b34801561054e57600080fd5b5061056960048036038101906105649190613c72565b6112e3565b60405161057691906150b7565b60405180910390f35b34801561058b57600080fd5b506105a660048036038101906105a19190613c31565b61137a565b005b3480156105b457600080fd5b506105cf60048036038101906105ca9190613c72565b611410565b6040516105dc9190614bf8565b60405180910390f35b3480156105f157600080fd5b5061060c60048036038101906106079190613c72565b6114c2565b005b34801561061a57600080fd5b5061063560048036038101906106309190613a38565b6115ab565b60405161064291906150b7565b60405180910390f35b34801561065757600080fd5b50610660611663565b005b34801561066e57600080fd5b5061068960048036038101906106849190613c72565b6116eb565b005b34801561069757600080fd5b506106a0611812565b6040516106ad9190614bf8565b60405180910390f35b3480156106c257600080fd5b506106cb61183c565b6040516106d89190614cbe565b60405180910390f35b3480156106ed57600080fd5b5061070860048036038101906107039190613b67565b6118ce565b005b34801561071657600080fd5b50610731600480360381019061072c9190613aec565b611a4f565b005b34801561073f57600080fd5b5061075a60048036038101906107559190613c9b565b611ab1565b005b61077660048036038101906107719190613c72565b611cca565b005b34801561078457600080fd5b5061079f600480360381019061079a9190613d26565b611dca565b005b3480156107ad57600080fd5b506107c860048036038101906107c39190613c72565b611fc1565b6040516107d59190614cbe565b60405180910390f35b3480156107ea57600080fd5b5061080560048036038101906108009190613a61565b612073565b6040516108129190614ca3565b60405180910390f35b34801561082757600080fd5b50610842600480360381019061083d9190613a38565b612107565b005b34801561085057600080fd5b5061086b60048036038101906108669190613cd7565b6121ff565b005b60007f780e9d63000000000000000000000000000000000000000000000000000000007bffffffffffffffffffffffffffffffffffffffffffffffffffffffff1916827bffffffffffffffffffffffffffffffffffffffffffffffffffffffff191614806108e057506108df82612636565b5b9050919050565b6060600080546108f690615569565b80601f016020809104026020016040519081016040528092919081815260200182805461092290615569565b801561096f5780601f106109445761010080835404028352916020019161096f565b820191906000526020600020905b81548152906001019060200180831161095257829003601f168201915b5050505050905090565b600061098482612718565b6109c3576040517f08c379a00000000000000000000000000000000000000000000000000000000081526004016109ba90614ee0565b60405180910390fd5b6004600083815260200190815260200160002060009054906101000a900473ffffffffffffffffffffffffffffffffffffffff169050919050565b6000610a0982611410565b90508073ffffffffffffffffffffffffffffffffffffffff168373ffffffffffffffffffffffffffffffffffffffff161415610a7a576040517f08c379a0000000000000000000000000000000000000000000000000000000008152600401610a7190614fc0565b60405180910390fd5b8073ffffffffffffffffffffffffffffffffffffffff16610a99612784565b73ffffffffffffffffffffffffffffffffffffffff161480610ac85750610ac781610ac2612784565b612073565b5b610b07576040517f08c379a0000000000000000000000000000000000000000000000000000000008152600401610afe90614e20565b60405180910390fd5b610b11838361278c565b505050565b6000600880549050905090565b60606000610b30836115ab565b905060008167ffffffffffffffff811115610b74577f4e487b7100000000000000000000000000000000000000000000000000000000600052604160045260246000fd5b604051908082528060200260200182016040528015610bad57816020015b610b9a6137f4565b815260200190600190039081610b925790505b50905060005b82811015610c5757600d6000610bc98784610dab565b81526020019081526020016000206040518060600160405290816000820154815260200160018201548152602001600282015481525050828281518110610c39577f4e487b7100000000000000000000000000000000000000000000000000000000600052603260045260246000fd5b60200260200101819052508080610c4f9061559b565b915050610bb3565b508092505050919050565b610c6a612784565b73ffffffffffffffffffffffffffffffffffffffff16610c88611812565b73ffffffffffffffffffffffffffffffffffffffff1614610cde576040517f08c379a0000000000000000000000000000000000000000000000000000000008152600401610cd590614f20565b60405180910390fd5b6000600e8281548110610d1a577f4e487b7100000000000000000000000000000000000000000000000000000000600052603260045260246000fd5b9060005260206000209060080201905060008160010160006101000a81548160ff0219169083151502179055505050565b610d5c610d56612784565b82612845565b610d9b576040517f08c379a0000000000000000000000000000000000000000000000000000000008152600401610d9290614fe0565b60405180910390fd5b610da6838383612923565b505050565b6000610db6836115ab565b8210610df7576040517f08c379a0000000000000000000000000000000000000000000000000000000008152600401610dee90614d20565b60405180910390fd5b600660008473ffffffffffffffffffffffffffffffffffffffff1673ffffffffffffffffffffffffffffffffffffffff168152602001908152602001600020600083815260200190815260200160002054905092915050565b610e58612784565b73ffffffffffffffffffffffffffffffffffffffff16610e76611812565b73ffffffffffffffffffffffffffffffffffffffff1614610ecc576040517f08c379a0000000000000000000000000000000000000000000000000000000008152600401610ec390614f20565b60405180910390fd5b80600b8190555050565b6060600e805480602002602001604051908101604052809291908181526020016000905b82821015610f8e578382906000526020600020906008020160405180610100016040529081600082015481526020016001820160009054906101000a900460ff16151515158152602001600282015481526020016003820154815260200160048201548152602001600582015481526020016006820154815260200160078201548152505081526020019060010190610efa565b50505050905090565b610f9f612784565b73ffffffffffffffffffffffffffffffffffffffff16610fbd611812565b73ffffffffffffffffffffffffffffffffffffffff1614611013576040517f08c379a000000000000000000000000000000000000000000000000000000000815260040161100a90614f20565b60405180910390fd5b600061101d611812565b90508073ffffffffffffffffffffffffffffffffffffffff166108fc479081150290604051600060405180830381858888f19350505050158015611065573d6000803e3d6000fd5b5050565b611071612784565b73ffffffffffffffffffffffffffffffffffffffff1661108f611812565b73ffffffffffffffffffffffffffffffffffffffff16146110e5576040517f08c379a00000000000000000000000000000000000000000000000000000000081526004016110dc90614f20565b60405180910390fd5b6000600e8054905090506000604051806060016040528083815260200160011515815260200184815250905060108190806001815401808255809150506001900390600052602060002090600302016000909190919091506000820151816000015560208201518160010160006101000a81548160ff021916908315150217905550604082015181600201555050505050565b61119383838360405180602001604052806000815250611a4f565b505050565b6111a0613815565b600e82815481106111da577f4e487b7100000000000000000000000000000000000000000000000000000000600052603260045260246000fd5b906000526020600020906008020160405180610100016040529081600082015481526020016001820160009054906101000a900460ff1615151515815260200160028201548152602001600382015481526020016004820154815260200160058201548152602001600682015481526020016007820154815250509050919050565b6000600f6000848152602001908152602001600020600083815260200190815260200160002060009054906101000a900460ff16905092915050565b6112a06137f4565b600d600083815260200190815260200160002060405180606001604052908160008201548152602001600182015481526020016002820154815250509050919050565b60006112ed610b16565b821061132e576040517f08c379a000000000000000000000000000000000000000000000000000000000815260040161132590615040565b60405180910390fd5b60088281548110611368577f4e487b7100000000000000000000000000000000000000000000000000000000600052603260045260246000fd5b90600052602060002001549050919050565b611382612784565b73ffffffffffffffffffffffffffffffffffffffff166113a0611812565b73ffffffffffffffffffffffffffffffffffffffff16146113f6576040517f08c379a00000000000000000000000000000000000000000000000000000000081526004016113ed90614f20565b60405180910390fd5b80600c908051906020019061140c92919061385c565b5050565b6000806002600084815260200190815260200160002060009054906101000a900473ffffffffffffffffffffffffffffffffffffffff169050600073ffffffffffffffffffffffffffffffffffffffff168173ffffffffffffffffffffffffffffffffffffffff1614156114b9576040517f08c379a00000000000000000000000000000000000000000000000000000000081526004016114b090614e80565b60405180910390fd5b80915050919050565b6114ca612784565b73ffffffffffffffffffffffffffffffffffffffff166114e8611812565b73ffffffffffffffffffffffffffffffffffffffff161461153e576040517f08c379a000000000000000000000000000000000000000000000000000000000815260040161153590614f20565b60405180910390fd5b60006010828154811061157a577f4e487b7100000000000000000000000000000000000000000000000000000000600052603260045260246000fd5b9060005260206000209060030201905060008160010160006101000a81548160ff0219169083151502179055505050565b60008073ffffffffffffffffffffffffffffffffffffffff168273ffffffffffffffffffffffffffffffffffffffff16141561161c576040517f08c379a000000000000000000000000000000000000000000000000000000000815260040161161390614e60565b60405180910390fd5b600360008373ffffffffffffffffffffffffffffffffffffffff1673ffffffffffffffffffffffffffffffffffffffff168152602001908152602001600020549050919050565b61166b612784565b73ffffffffffffffffffffffffffffffffffffffff16611689611812565b73ffffffffffffffffffffffffffffffffffffffff16146116df576040517f08c379a00000000000000000000000000000000000000000000000000000000081526004016116d690614f20565b60405180910390fd5b6116e96000612b7f565b565b6116f3612784565b73ffffffffffffffffffffffffffffffffffffffff16611711611812565b73ffffffffffffffffffffffffffffffffffffffff1614611767576040517f08c379a000000000000000000000000000000000000000000000000000000000815260040161175e90614f20565b60405180910390fd5b61271081611773610b16565b61177d919061522d565b11156117be576040517f08c379a00000000000000000000000000000000000000000000000000000000081526004016117b590614d00565b60405180910390fd5b60005b8181101561180e5760006117d3610b16565b90506127106117e0610b16565b10156117fa576117f03382612c45565b6117f981612c63565b5b5080806118069061559b565b9150506117c1565b5050565b6000600a60009054906101000a900473ffffffffffffffffffffffffffffffffffffffff16905090565b60606001805461184b90615569565b80601f016020809104026020016040519081016040528092919081815260200182805461187790615569565b80156118c45780601f10611899576101008083540402835291602001916118c4565b820191906000526020600020905b8154815290600101906020018083116118a757829003601f168201915b5050505050905090565b6118d6612784565b73ffffffffffffffffffffffffffffffffffffffff168273ffffffffffffffffffffffffffffffffffffffff161415611944576040517f08c379a000000000000000000000000000000000000000000000000000000000815260040161193b90614de0565b60405180910390fd5b8060056000611951612784565b73ffffffffffffffffffffffffffffffffffffffff1673ffffffffffffffffffffffffffffffffffffffff16815260200190815260200160002060008473ffffffffffffffffffffffffffffffffffffffff1673ffffffffffffffffffffffffffffffffffffffff16815260200190815260200160002060006101000a81548160ff0219169083151502179055508173ffffffffffffffffffffffffffffffffffffffff166119fe612784565b73ffffffffffffffffffffffffffffffffffffffff167f17307eab39ab6107e8899845ad3d59bd9653f200f220920489ca2b5937696c3183604051611a439190614ca3565b60405180910390a35050565b611a60611a5a612784565b83612845565b611a9f576040517f08c379a0000000000000000000000000000000000000000000000000000000008152600401611a9690614fe0565b60405180910390fd5b611aab84848484612d17565b50505050565b611ac2611abc612784565b82612845565b611b01576040517f08c379a0000000000000000000000000000000000000000000000000000000008152600401611af890614fe0565b60405180910390fd5b60108281548110611b3b577f4e487b7100000000000000000000000000000000000000000000000000000000600052603260045260246000fd5b906000526020600020906003020160010160009054906101000a900460ff16611b99576040517f08c379a0000000000000000000000000000000000000000000000000000000008152600401611b9090614e40565b60405180910390fd5b60116000838152602001908152602001600020600082815260200190815260200160002060009054906101000a900460ff1615611c0b576040517f08c379a0000000000000000000000000000000000000000000000000000000008152600401611c0290614da0565b60405180910390fd5b6000600d6000838152602001908152602001600020905060108381548110611c5c577f4e487b7100000000000000000000000000000000000000000000000000000000600052603260045260246000fd5b906000526020600020906003020160020154816002016000828254611c81919061522d565b92505081905550600160116000858152602001908152602001600020600084815260200190815260200160002060006101000a81548160ff021916908315150217905550505050565b61271081611cd6610b16565b611ce0919061522d565b1115611d21576040517f08c379a0000000000000000000000000000000000000000000000000000000008152600401611d1890614fa0565b60405180910390fd5b348166b1a2bc2ec50000611d359190615425565b1115611d76576040517f08c379a0000000000000000000000000000000000000000000000000000000008152600401611d6d90614f80565b60405180910390fd5b60005b81811015611dc6576000611d8b610b16565b9050612710611d98610b16565b1015611db257611da83382612c45565b611db181612c63565b5b508080611dbe9061559b565b915050611d79565b5050565b611dd2612784565b73ffffffffffffffffffffffffffffffffffffffff16611df0611812565b73ffffffffffffffffffffffffffffffffffffffff1614611e46576040517f08c379a0000000000000000000000000000000000000000000000000000000008152600401611e3d90614f20565b60405180910390fd5b60088410611e89576040517f08c379a0000000000000000000000000000000000000000000000000000000008152600401611e8090614ea0565b60405180910390fd5b600983118015611e995750606483105b611ed8576040517f08c379a0000000000000000000000000000000000000000000000000000000008152600401611ecf90614ce0565b60405180910390fd5b6000600e805490509050600060405180610100016040528083815260200160011515815260200188815260200187815260200186815260200185815260200184815260200160008152509050600e8190806001815401808255809150506001900390600052602060002090600802016000909190919091506000820151816000015560208201518160010160006101000a81548160ff02191690831515021790555060408201518160020155606082015181600301556080820151816004015560a0820151816005015560c0820151816006015560e08201518160070155505050505050505050565b6060611fcc82612718565b61200b576040517f08c379a000000000000000000000000000000000000000000000000000000000815260040161200290614f60565b60405180910390fd5b6000600c805461201a90615569565b905011612036576040518060200160405280600081525061206c565b600c6012600084815260200190815260200160002060405160200161205c929190614ba8565b6040516020818303038152906040525b9050919050565b6000600560008473ffffffffffffffffffffffffffffffffffffffff1673ffffffffffffffffffffffffffffffffffffffff16815260200190815260200160002060008373ffffffffffffffffffffffffffffffffffffffff1673ffffffffffffffffffffffffffffffffffffffff16815260200190815260200160002060009054906101000a900460ff16905092915050565b61210f612784565b73ffffffffffffffffffffffffffffffffffffffff1661212d611812565b73ffffffffffffffffffffffffffffffffffffffff1614612183576040517f08c379a000000000000000000000000000000000000000000000000000000000815260040161217a90614f20565b60405180910390fd5b600073ffffffffffffffffffffffffffffffffffffffff168173ffffffffffffffffffffffffffffffffffffffff1614156121f3576040517f08c379a00000000000000000000000000000000000000000000000000000000081526004016121ea90614d60565b60405180910390fd5b6121fc81612b7f565b50565b61221061220a612784565b84612845565b61224f576040517f08c379a000000000000000000000000000000000000000000000000000000000815260040161224690614fe0565b60405180910390fd5b600e8281548110612289577f4e487b7100000000000000000000000000000000000000000000000000000000600052603260045260246000fd5b906000526020600020906008020160010160009054906101000a900460ff166122e7576040517f08c379a00000000000000000000000000000000000000000000000000000000081526004016122de90614f00565b60405180910390fd5b80600e8381548110612322577f4e487b7100000000000000000000000000000000000000000000000000000000600052603260045260246000fd5b90600052602060002090600802016006015461233e9190615425565b600d6000858152602001908152602001600020600201541015612396576040517f08c379a000000000000000000000000000000000000000000000000000000000815260040161238d90615060565b60405180910390fd5b600f6000838152602001908152602001600020600084815260200190815260200160002060009054906101000a900460ff1615612408576040517f08c379a00000000000000000000000000000000000000000000000000000000081526004016123ff90615020565b60405180910390fd5b600e8281548110612442577f4e487b7100000000000000000000000000000000000000000000000000000000600052603260045260246000fd5b906000526020600020906008020160020154600e838154811061248e577f4e487b7100000000000000000000000000000000000000000000000000000000600052603260045260246000fd5b906000526020600020906008020160070154106124e0576040517f08c379a00000000000000000000000000000000000000000000000000000000081526004016124d790615000565b60405180910390fd5b6000600d600085815260200190815260200160002090506000600e8481548110612533577f4e487b7100000000000000000000000000000000000000000000000000000000600052603260045260246000fd5b906000526020600020906008020190506000805b848110156126125782600601548261255f919061522d565b9150826005015460016125726064612d73565b61257c919061522d565b11156125ff57612599846001015484600301548560040154612db8565b84600101819055506001600f6000888152602001908152602001600020600089815260200190815260200160002060006101000a81548160ff02191690831515021790555060018360070160008282546125f3919061522d565b92505081905550612612565b808061260a9061559b565b915050612547565b5080836002016000828254612627919061547f565b92505081905550505050505050565b60007f80ac58cd000000000000000000000000000000000000000000000000000000007bffffffffffffffffffffffffffffffffffffffffffffffffffffffff1916827bffffffffffffffffffffffffffffffffffffffffffffffffffffffff1916148061270157507f5b5e139f000000000000000000000000000000000000000000000000000000007bffffffffffffffffffffffffffffffffffffffffffffffffffffffff1916827bffffffffffffffffffffffffffffffffffffffffffffffffffffffff1916145b80612711575061271082612eac565b5b9050919050565b60008073ffffffffffffffffffffffffffffffffffffffff166002600084815260200190815260200160002060009054906101000a900473ffffffffffffffffffffffffffffffffffffffff1673ffffffffffffffffffffffffffffffffffffffff1614159050919050565b600033905090565b816004600083815260200190815260200160002060006101000a81548173ffffffffffffffffffffffffffffffffffffffff021916908373ffffffffffffffffffffffffffffffffffffffff160217905550808273ffffffffffffffffffffffffffffffffffffffff166127ff83611410565b73ffffffffffffffffffffffffffffffffffffffff167f8c5be1e5ebec7d5bd14f71427d1e84f3dd0314c0f7b2291e5b200ac8c7c3b92560405160405180910390a45050565b600061285082612718565b61288f576040517f08c379a000000000000000000000000000000000000000000000000000000000815260040161288690614e00565b60405180910390fd5b600061289a83611410565b90508073ffffffffffffffffffffffffffffffffffffffff168473ffffffffffffffffffffffffffffffffffffffff16148061290957508373ffffffffffffffffffffffffffffffffffffffff166128f184610979565b73ffffffffffffffffffffffffffffffffffffffff16145b8061291a57506129198185612073565b5b91505092915050565b8273ffffffffffffffffffffffffffffffffffffffff1661294382611410565b73ffffffffffffffffffffffffffffffffffffffff1614612999576040517f08c379a000000000000000000000000000000000000000000000000000000000815260040161299090614f40565b60405180910390fd5b600073ffffffffffffffffffffffffffffffffffffffff168273ffffffffffffffffffffffffffffffffffffffff161415612a09576040517f08c379a0000000000000000000000000000000000000000000000000000000008152600401612a0090614dc0565b60405180910390fd5b612a14838383612f16565b612a1f60008261278c565b6001600360008573ffffffffffffffffffffffffffffffffffffffff1673ffffffffffffffffffffffffffffffffffffffff1681526020019081526020016000206000828254612a6f919061547f565b925050819055506001600360008473ffffffffffffffffffffffffffffffffffffffff1673ffffffffffffffffffffffffffffffffffffffff1681526020019081526020016000206000828254612ac6919061522d565b92505081905550816002600083815260200190815260200160002060006101000a81548173ffffffffffffffffffffffffffffffffffffffff021916908373ffffffffffffffffffffffffffffffffffffffff160217905550808273ffffffffffffffffffffffffffffffffffffffff168473ffffffffffffffffffffffffffffffffffffffff167fddf252ad1be2c89b69c2b068fc378daa952ba7f163c4a11628f55a4df523b3ef60405160405180910390a4505050565b6000600a60009054906101000a900473ffffffffffffffffffffffffffffffffffffffff16905081600a60006101000a81548173ffffffffffffffffffffffffffffffffffffffff021916908373ffffffffffffffffffffffffffffffffffffffff1602179055508173ffffffffffffffffffffffffffffffffffffffff168173ffffffffffffffffffffffffffffffffffffffff167f8be0079c531659141344cd1fd0a4f28419497f9722a3daafe3b4186f6b6457e060405160405180910390a35050565b612c5f82826040518060200160405280600081525061302a565b5050565b612c6c81612718565b612cab576040517f08c379a0000000000000000000000000000000000000000000000000000000008152600401612ca290614f60565b60405180910390fd5b6000612cb5613085565b90506000606490506000604051806060016040528085815260200184815260200183815250905080600d600086815260200190815260200160002060008201518160000155602082015181600101556040820151816002015590505050505050565b612d22848484612923565b612d2e848484846130ff565b612d6d576040517f08c379a0000000000000000000000000000000000000000000000000000000008152600401612d6490614d40565b60405180910390fd5b50505050565b6000804233604051602001612d89929190614bcc565b6040516020818303038152906040528051906020012060001c90508281612db09190615612565b915050919050565b60008060008414612df857836002612dd09190615425565b6010612ddc919061547f565b600a612de89190615307565b85612df39190615283565b612dfb565b60005b90506000600185612e0c919061522d565b6002612e189190615425565b6010612e24919061547f565b600a612e309190615307565b86612e3b9190615612565b9050600081600187612e4d919061522d565b6002612e599190615425565b6010612e65919061547f565b600a612e719190615307565b86606486612e7f9190615425565b612e89919061522d565b612e939190615425565b612e9d919061522d565b90508093505050509392505050565b60007f01ffc9a7000000000000000000000000000000000000000000000000000000007bffffffffffffffffffffffffffffffffffffffffffffffffffffffff1916827bffffffffffffffffffffffffffffffffffffffffffffffffffffffff1916149050919050565b612f21838383613296565b600073ffffffffffffffffffffffffffffffffffffffff168373ffffffffffffffffffffffffffffffffffffffff161415612f6457612f5f8161329b565b612fa3565b8173ffffffffffffffffffffffffffffffffffffffff168373ffffffffffffffffffffffffffffffffffffffff1614612fa257612fa183826132e4565b5b5b600073ffffffffffffffffffffffffffffffffffffffff168273ffffffffffffffffffffffffffffffffffffffff161415612fe657612fe181613451565b613025565b8273ffffffffffffffffffffffffffffffffffffffff168273ffffffffffffffffffffffffffffffffffffffff1614613024576130238282613594565b5b5b505050565b6130348383613613565b61304160008484846130ff565b613080576040517f08c379a000000000000000000000000000000000000000000000000000000000815260040161307790614d40565b60405180910390fd5b505050565b600080662386f26fc1000042336040516020016130a3929190614bcc565b6040516020818303038152906040528051906020012060001c6130c69190615612565b90505b600066038d7ea4c68000826130de9190615283565b14156130f857600a816130f19190615425565b90506130c9565b8091505090565b60006131208473ffffffffffffffffffffffffffffffffffffffff166137e1565b15613289578373ffffffffffffffffffffffffffffffffffffffff1663150b7a02613149612784565b8786866040518563ffffffff1660e01b815260040161316b9493929190614c13565b602060405180830381600087803b15801561318557600080fd5b505af19250505080156131b657506040513d601f19601f820116820180604052508101906131b39190613c08565b60015b613239573d80600081146131e6576040519150601f19603f3d011682016040523d82523d6000602084013e6131eb565b606091505b50600081511415613231576040517f08c379a000000000000000000000000000000000000000000000000000000000815260040161322890614d40565b60405180910390fd5b805181602001fd5b63150b7a0260e01b7bffffffffffffffffffffffffffffffffffffffffffffffffffffffff1916817bffffffffffffffffffffffffffffffffffffffffffffffffffffffff19161491505061328e565b600190505b949350505050565b505050565b6008805490506009600083815260200190815260200160002081905550600881908060018154018082558091505060019003906000526020600020016000909190919091505550565b600060016132f1846115ab565b6132fb919061547f565b90506000600760008481526020019081526020016000205490508181146133e0576000600660008673ffffffffffffffffffffffffffffffffffffffff1673ffffffffffffffffffffffffffffffffffffffff168152602001908152602001600020600084815260200190815260200160002054905080600660008773ffffffffffffffffffffffffffffffffffffffff1673ffffffffffffffffffffffffffffffffffffffff168152602001908152602001600020600084815260200190815260200160002081905550816007600083815260200190815260200160002081905550505b6007600084815260200190815260200160002060009055600660008573ffffffffffffffffffffffffffffffffffffffff1673ffffffffffffffffffffffffffffffffffffffff16815260200190815260200160002060008381526020019081526020016000206000905550505050565b60006001600880549050613465919061547f565b90506000600960008481526020019081526020016000205490506000600883815481106134bb577f4e487b7100000000000000000000000000000000000000000000000000000000600052603260045260246000fd5b906000526020600020015490508060088381548110613503577f4e487b7100000000000000000000000000000000000000000000000000000000600052603260045260246000fd5b906000526020600020018190555081600960008381526020019081526020016000208190555060096000858152602001908152602001600020600090556008805480613578577f4e487b7100000000000000000000000000000000000000000000000000000000600052603160045260246000fd5b6001900381819060005260206000200160009055905550505050565b600061359f836115ab565b905081600660008573ffffffffffffffffffffffffffffffffffffffff1673ffffffffffffffffffffffffffffffffffffffff168152602001908152602001600020600083815260200190815260200160002081905550806007600084815260200190815260200160002081905550505050565b600073ffffffffffffffffffffffffffffffffffffffff168273ffffffffffffffffffffffffffffffffffffffff161415613683576040517f08c379a000000000000000000000000000000000000000000000000000000000815260040161367a90614ec0565b60405180910390fd5b61368c81612718565b156136cc576040517f08c379a00000000000000000000000000000000000000000000000000000000081526004016136c390614d80565b60405180910390fd5b6136d860008383612f16565b6001600360008473ffffffffffffffffffffffffffffffffffffffff1673ffffffffffffffffffffffffffffffffffffffff1681526020019081526020016000206000828254613728919061522d565b92505081905550816002600083815260200190815260200160002060006101000a81548173ffffffffffffffffffffffffffffffffffffffff021916908373ffffffffffffffffffffffffffffffffffffffff160217905550808273ffffffffffffffffffffffffffffffffffffffff16600073ffffffffffffffffffffffffffffffffffffffff167fddf252ad1be2c89b69c2b068fc378daa952ba7f163c4a11628f55a4df523b3ef60405160405180910390a45050565b600080823b905060008111915050919050565b60405180606001604052806000815260200160008152602001600081525090565b604051806101000160405280600081526020016000151581526020016000815260200160008152602001600081526020016000815260200160008152602001600081525090565b82805461386890615569565b90600052602060002090601f01602090048101928261388a57600085556138d1565b82601f106138a357805160ff19168380011785556138d1565b828001600101855582156138d1579182015b828111156138d05782518255916020019190600101906138b5565b5b5090506138de91906138e2565b5090565b5b808211156138fb5760008160009055506001016138e3565b5090565b600061391261390d84615103565b6150d2565b90508281526020810184848401111561392a57600080fd5b613935848285615527565b509392505050565b600061395061394b84615133565b6150d2565b90508281526020810184848401111561396857600080fd5b613973848285615527565b509392505050565b60008135905061398a8161572a565b92915050565b60008135905061399f81615741565b92915050565b6000813590506139b481615758565b92915050565b6000815190506139c981615758565b92915050565b600082601f8301126139e057600080fd5b81356139f08482602086016138ff565b91505092915050565b600082601f830112613a0a57600080fd5b8135613a1a84826020860161393d565b91505092915050565b600081359050613a328161576f565b92915050565b600060208284031215613a4a57600080fd5b6000613a588482850161397b565b91505092915050565b60008060408385031215613a7457600080fd5b6000613a828582860161397b565b9250506020613a938582860161397b565b9150509250929050565b600080600060608486031215613ab257600080fd5b6000613ac08682870161397b565b9350506020613ad18682870161397b565b9250506040613ae286828701613a23565b9150509250925092565b60008060008060808587031215613b0257600080fd5b6000613b108782880161397b565b9450506020613b218782880161397b565b9350506040613b3287828801613a23565b925050606085013567ffffffffffffffff811115613b4f57600080fd5b613b5b878288016139cf565b91505092959194509250565b60008060408385031215613b7a57600080fd5b6000613b888582860161397b565b9250506020613b9985828601613990565b9150509250929050565b60008060408385031215613bb657600080fd5b6000613bc48582860161397b565b9250506020613bd585828601613a23565b9150509250929050565b600060208284031215613bf157600080fd5b6000613bff848285016139a5565b91505092915050565b600060208284031215613c1a57600080fd5b6000613c28848285016139ba565b91505092915050565b600060208284031215613c4357600080fd5b600082013567ffffffffffffffff811115613c5d57600080fd5b613c69848285016139f9565b91505092915050565b600060208284031215613c8457600080fd5b6000613c9284828501613a23565b91505092915050565b60008060408385031215613cae57600080fd5b6000613cbc85828601613a23565b9250506020613ccd85828601613a23565b9150509250929050565b600080600060608486031215613cec57600080fd5b6000613cfa86828701613a23565b9350506020613d0b86828701613a23565b9250506040613d1c86828701613a23565b9150509250925092565b600080600080600060a08688031215613d3e57600080fd5b6000613d4c88828901613a23565b9550506020613d5d88828901613a23565b9450506040613d6e88828901613a23565b9350506060613d7f88828901613a23565b9250506080613d9088828901613a23565b9150509295509295909350565b6000613da983836149ab565b60608301905092915050565b6000613dc18383614a2f565b6101008301905092915050565b613dd7816154b3565b82525050565b613dee613de9826154b3565b6155e4565b82525050565b6000613dff82615198565b613e0981856151de565b9350613e1483615163565b8060005b83811015613e45578151613e2c8882613d9d565b9750613e37836151c4565b925050600181019050613e18565b5085935050505092915050565b6000613e5d826151a3565b613e6781856151ef565b9350613e7283615173565b8060005b83811015613ea3578151613e8a8882613db5565b9750613e95836151d1565b925050600181019050613e76565b5085935050505092915050565b613eb9816154c5565b82525050565b613ec8816154c5565b82525050565b6000613ed9826151ae565b613ee38185615200565b9350613ef3818560208601615536565b613efc816156ff565b840191505092915050565b6000613f12826151b9565b613f1c8185615211565b9350613f2c818560208601615536565b613f35816156ff565b840191505092915050565b60008154613f4d81615569565b613f578186615222565b94506001821660008114613f725760018114613f8357613fb6565b60ff19831686528186019350613fb6565b613f8c85615183565b60005b83811015613fae57815481890152600182019150602081019050613f8f565b838801955050505b50505092915050565b6000613fcc601683615211565b91507f496e636f7272656374206d7574617465642067656e65000000000000000000006000830152602082019050919050565b600061400c602483615211565b91507f5265736572766174696f6e20776f756c6420657863656564206d61782073757060008301527f706c792e000000000000000000000000000000000000000000000000000000006020830152604082019050919050565b6000614072602b83615211565b91507f455243373231456e756d657261626c653a206f776e657220696e646578206f7560008301527f74206f6620626f756e64730000000000000000000000000000000000000000006020830152604082019050919050565b60006140d8603283615211565b91507f4552433732313a207472616e7366657220746f206e6f6e20455243373231526560008301527f63656976657220696d706c656d656e74657200000000000000000000000000006020830152604082019050919050565b600061413e602683615211565b91507f4f776e61626c653a206e6577206f776e657220697320746865207a65726f206160008301527f64647265737300000000000000000000000000000000000000000000000000006020830152604082019050919050565b60006141a4601c83615211565b91507f4552433732313a20746f6b656e20616c7265616479206d696e746564000000006000830152602082019050919050565b60006141e4602483615211565b91507f4772696d616c6b696e2068617320616c726561647920636c61696d656420706f60008301527f74696f6e000000000000000000000000000000000000000000000000000000006020830152604082019050919050565b600061424a602483615211565b91507f4552433732313a207472616e7366657220746f20746865207a65726f2061646460008301527f72657373000000000000000000000000000000000000000000000000000000006020830152604082019050919050565b60006142b0601983615211565b91507f4552433732313a20617070726f766520746f2063616c6c6572000000000000006000830152602082019050919050565b60006142f0602c83615211565b91507f4552433732313a206f70657261746f7220717565727920666f72206e6f6e657860008301527f697374656e7420746f6b656e00000000000000000000000000000000000000006020830152604082019050919050565b6000614356603883615211565b91507f4552433732313a20617070726f76652063616c6c6572206973206e6f74206f7760008301527f6e6572206e6f7220617070726f76656420666f7220616c6c00000000000000006020830152604082019050919050565b60006143bc601483615211565b91507f506f74696f6e206973206e6f74206163746976650000000000000000000000006000830152602082019050919050565b60006143fc602a83615211565b91507f4552433732313a2062616c616e636520717565727920666f7220746865207a6560008301527f726f2061646472657373000000000000000000000000000000000000000000006020830152604082019050919050565b6000614462602983615211565b91507f4552433732313a206f776e657220717565727920666f72206e6f6e657869737460008301527f656e7420746f6b656e00000000000000000000000000000000000000000000006020830152604082019050919050565b60006144c8601183615211565b91507f496e636f72726563742067656e652069640000000000000000000000000000006000830152602082019050919050565b6000614508602083615211565b91507f4552433732313a206d696e7420746f20746865207a65726f20616464726573736000830152602082019050919050565b6000614548602c83615211565b91507f4552433732313a20617070726f76656420717565727920666f72206e6f6e657860008301527f697374656e7420746f6b656e00000000000000000000000000000000000000006020830152604082019050919050565b60006145ae601383615211565b91507f5175657374206973206e6f7420616374697665000000000000000000000000006000830152602082019050919050565b60006145ee602083615211565b91507f4f776e61626c653a2063616c6c6572206973206e6f7420746865206f776e65726000830152602082019050919050565b600061462e602983615211565b91507f4552433732313a207472616e73666572206f6620746f6b656e2074686174206960008301527f73206e6f74206f776e00000000000000000000000000000000000000000000006020830152604082019050919050565b6000614694602f83615211565b91507f4552433732314d657461646174613a2055524920717565727920666f72206e6f60008301527f6e6578697374656e7420746f6b656e00000000000000000000000000000000006020830152604082019050919050565b60006146fa601e83615211565b91507f496e73756666696369656e742045746865722076616c75652073656e742e00006000830152602082019050919050565b600061473a602983615211565b91507f507572636861736520776f756c6420657863656564206d617820737570706c7960008301527f206f6620636174732e00000000000000000000000000000000000000000000006020830152604082019050919050565b60006147a0602183615211565b91507f4552433732313a20617070726f76616c20746f2063757272656e74206f776e6560008301527f72000000000000000000000000000000000000000000000000000000000000006020830152604082019050919050565b6000614806603183615211565b91507f4552433732313a207472616e736665722063616c6c6572206973206e6f74206f60008301527f776e6572206e6f7220617070726f7665640000000000000000000000000000006020830152604082019050919050565b600061486c601a83615211565b91507f5175657374207265776172642066756c6c7920636c61696d65640000000000006000830152602082019050919050565b60006148ac602a83615211565b91507f4772696d616c6b696e2068617320616c726561647920636c61696d656420717560008301527f65737420726577617264000000000000000000000000000000000000000000006020830152604082019050919050565b6000614912602c83615211565b91507f455243373231456e756d657261626c653a20676c6f62616c20696e646578206f60008301527f7574206f6620626f756e647300000000000000000000000000000000000000006020830152604082019050919050565b6000614978600f83615211565b91507f496e73756666696369656e74206b6900000000000000000000000000000000006000830152602082019050919050565b6060820160008201516149c16000850182614b73565b5060208201516149d46020850182614b73565b5060408201516149e76040850182614b73565b50505050565b606082016000820151614a036000850182614b73565b506020820151614a166020850182614b73565b506040820151614a296040850182614b73565b50505050565b61010082016000820151614a466000850182614b73565b506020820151614a596020850182613eb0565b506040820151614a6c6040850182614b73565b506060820151614a7f6060850182614b73565b506080820151614a926080850182614b73565b5060a0820151614aa560a0850182614b73565b5060c0820151614ab860c0850182614b73565b5060e0820151614acb60e0850182614b73565b50505050565b61010082016000820151614ae86000850182614b73565b506020820151614afb6020850182613eb0565b506040820151614b0e6040850182614b73565b506060820151614b216060850182614b73565b506080820151614b346080850182614b73565b5060a0820151614b4760a0850182614b73565b5060c0820151614b5a60c0850182614b73565b5060e0820151614b6d60e0850182614b73565b50505050565b614b7c8161551d565b82525050565b614b8b8161551d565b82525050565b614ba2614b9d8261551d565b615608565b82525050565b6000614bb48285613f40565b9150614bc08284613f40565b91508190509392505050565b6000614bd88285614b91565b602082019150614be88284613ddd565b6014820191508190509392505050565b6000602082019050614c0d6000830184613dce565b92915050565b6000608082019050614c286000830187613dce565b614c356020830186613dce565b614c426040830185614b82565b8181036060830152614c548184613ece565b905095945050505050565b60006020820190508181036000830152614c798184613df4565b905092915050565b60006020820190508181036000830152614c9b8184613e52565b905092915050565b6000602082019050614cb86000830184613ebf565b92915050565b60006020820190508181036000830152614cd88184613f07565b905092915050565b60006020820190508181036000830152614cf981613fbf565b9050919050565b60006020820190508181036000830152614d1981613fff565b9050919050565b60006020820190508181036000830152614d3981614065565b9050919050565b60006020820190508181036000830152614d59816140cb565b9050919050565b60006020820190508181036000830152614d7981614131565b9050919050565b60006020820190508181036000830152614d9981614197565b9050919050565b60006020820190508181036000830152614db9816141d7565b9050919050565b60006020820190508181036000830152614dd98161423d565b9050919050565b60006020820190508181036000830152614df9816142a3565b9050919050565b60006020820190508181036000830152614e19816142e3565b9050919050565b60006020820190508181036000830152614e3981614349565b9050919050565b60006020820190508181036000830152614e59816143af565b9050919050565b60006020820190508181036000830152614e79816143ef565b9050919050565b60006020820190508181036000830152614e9981614455565b9050919050565b60006020820190508181036000830152614eb9816144bb565b9050919050565b60006020820190508181036000830152614ed9816144fb565b9050919050565b60006020820190508181036000830152614ef98161453b565b9050919050565b60006020820190508181036000830152614f19816145a1565b9050919050565b60006020820190508181036000830152614f39816145e1565b9050919050565b60006020820190508181036000830152614f5981614621565b9050919050565b60006020820190508181036000830152614f7981614687565b9050919050565b60006020820190508181036000830152614f99816146ed565b9050919050565b60006020820190508181036000830152614fb98161472d565b9050919050565b60006020820190508181036000830152614fd981614793565b9050919050565b60006020820190508181036000830152614ff9816147f9565b9050919050565b600060208201905081810360008301526150198161485f565b9050919050565b600060208201905081810360008301526150398161489f565b9050919050565b6000602082019050818103600083015261505981614905565b9050919050565b600060208201905081810360008301526150798161496b565b9050919050565b600060608201905061509560008301846149ed565b92915050565b6000610100820190506150b16000830184614ad1565b92915050565b60006020820190506150cc6000830184614b82565b92915050565b6000604051905081810181811067ffffffffffffffff821117156150f9576150f86156d0565b5b8060405250919050565b600067ffffffffffffffff82111561511e5761511d6156d0565b5b601f19601f8301169050602081019050919050565b600067ffffffffffffffff82111561514e5761514d6156d0565b5b601f19601f8301169050602081019050919050565b6000819050602082019050919050565b6000819050602082019050919050565b60008190508160005260206000209050919050565b600081519050919050565b600081519050919050565b600081519050919050565b600081519050919050565b6000602082019050919050565b6000602082019050919050565b600082825260208201905092915050565b600082825260208201905092915050565b600082825260208201905092915050565b600082825260208201905092915050565b600081905092915050565b60006152388261551d565b91506152438361551d565b9250827fffffffffffffffffffffffffffffffffffffffffffffffffffffffffffffffff0382111561527857615277615643565b5b828201905092915050565b600061528e8261551d565b91506152998361551d565b9250826152a9576152a8615672565b5b828204905092915050565b6000808291508390505b60018511156152fe578086048111156152da576152d9615643565b5b60018516156152e95780820291505b80810290506152f78561571d565b94506152be565b94509492505050565b60006153128261551d565b915061531d8361551d565b925061534a7fffffffffffffffffffffffffffffffffffffffffffffffffffffffffffffffff8484615352565b905092915050565b600082615362576001905061541e565b81615370576000905061541e565b81600181146153865760028114615390576153bf565b600191505061541e565b60ff8411156153a2576153a1615643565b5b8360020a9150848211156153b9576153b8615643565b5b5061541e565b5060208310610133831016604e8410600b84101617156153f45782820a9050838111156153ef576153ee615643565b5b61541e565b61540184848460016152b4565b9250905081840481111561541857615417615643565b5b81810290505b9392505050565b60006154308261551d565b915061543b8361551d565b9250817fffffffffffffffffffffffffffffffffffffffffffffffffffffffffffffffff048311821515161561547457615473615643565b5b828202905092915050565b600061548a8261551d565b91506154958361551d565b9250828210156154a8576154a7615643565b5b828203905092915050565b60006154be826154fd565b9050919050565b60008115159050919050565b60007fffffffff0000000000000000000000000000000000000000000000000000000082169050919050565b600073ffffffffffffffffffffffffffffffffffffffff82169050919050565b6000819050919050565b82818337600083830152505050565b60005b83811015615554578082015181840152602081019050615539565b83811115615563576000848401525b50505050565b6000600282049050600182168061558157607f821691505b60208210811415615595576155946156a1565b5b50919050565b60006155a68261551d565b91507fffffffffffffffffffffffffffffffffffffffffffffffffffffffffffffffff8214156155d9576155d8615643565b5b600182019050919050565b60006155ef826155f6565b9050919050565b600061560182615710565b9050919050565b6000819050919050565b600061561d8261551d565b91506156288361551d565b92508261563857615637615672565b5b828206905092915050565b7f4e487b7100000000000000000000000000000000000000000000000000000000600052601160045260246000fd5b7f4e487b7100000000000000000000000000000000000000000000000000000000600052601260045260246000fd5b7f4e487b7100000000000000000000000000000000000000000000000000000000600052602260045260246000fd5b7f4e487b7100000000000000000000000000000000000000000000000000000000600052604160045260246000fd5b6000601f19601f8301169050919050565b60008160601b9050919050565b60008160011c9050919050565b615733816154b3565b811461573e57600080fd5b50565b61574a816154c5565b811461575557600080fd5b50565b615761816154d1565b811461576c57600080fd5b50565b6157788161551d565b811461578357600080fd5b5056fea264697066735822122046593f1c92fa154a304d59f6e45a1876bf6bbfe9b4f63962af30a1f63fc5089d64736f6c63430008000033",
  "immutableReferences": {},
  "source": "// SPDX-License-Identifier: MIT\r\n\r\npragma solidity ^0.8.0;\r\n\r\nimport \"./standards/ERC721Enumerable.sol\";\r\nimport \"./utils/Ownable.sol\";\r\n\r\ncontract Grimalkin is ERC721Enumerable, Ownable {\r\n    uint256 private constant maxSupply = 10000;\r\n    uint256 private dropQuota; // REMOVE?\r\n    string private baseURI;\r\n    uint256 private constant catPrice = 0.05 ether;\r\n\r\n    // Mapping from token ID to Cat\r\n    mapping(uint256 => Cat) _cats;\r\n\r\n    // List of quests\r\n    Quest[] _quests;\r\n    mapping(uint256 => mapping(uint256 => bool)) _questRewardClaimed; // quest id => token id => hasClaimed\r\n\r\n    // List of potions\r\n    // TODO: RENAME LOL\r\n    KiPotion[] _kiPotions;\r\n    mapping(uint256 => mapping(uint256 => bool)) _potionClaimed; // potion id => token id => hasClaimed\r\n\r\n    // Mapping from token ID to token URI\r\n    mapping(uint256 => string) _tokenURI;\r\n\r\n    struct Cat {\r\n        uint256 id;\r\n        uint256 dna;\r\n        uint256 ki;\r\n    }\r\n\r\n    struct Quest {\r\n        uint256 id;\r\n        bool isActive;\r\n        uint256 maxClaimable;\r\n        uint256 geneToMutateId; // 0-7\r\n        uint256 mutatedGene;\r\n        uint256 difficulty; // 0-99\r\n        uint256 kiCost;\r\n        uint256 claimed;\r\n    }\r\n\r\n    struct KiPotion {\r\n        uint256 id;\r\n        bool isActive;\r\n        uint256 kiToReplenish;\r\n    }\r\n\r\n    constructor(string memory name, string memory symbol)\r\n        ERC721(name, symbol)\r\n        Ownable()\r\n    {\r\n        // SET BASE URI HERE //\r\n        baseURI = \"\";\r\n    }\r\n\r\n    /**\r\n     * Reserve n cats\r\n     */\r\n    function reserveGrimalkin(uint256 numCats) public onlyOwner {\r\n        require(\r\n            totalSupply() + numCats <= maxSupply,\r\n            \"Reservation would exceed max supply.\"\r\n        );\r\n        for (uint256 i = 0; i < numCats; i++) {\r\n            uint256 mintIndex = totalSupply();\r\n            if (totalSupply() < maxSupply) {\r\n                _safeMint(msg.sender, mintIndex);\r\n                _createRandomCat(mintIndex);\r\n            }\r\n        }\r\n    }\r\n\r\n    /**\r\n     * Mint cat(s) to sender's wallet.\r\n     */\r\n    function mintGrimalkin(uint256 numCats) public payable {\r\n        require(\r\n            totalSupply() + numCats <= maxSupply,\r\n            \"Purchase would exceed max supply of cats.\"\r\n        );\r\n        require(\r\n            catPrice * numCats <= msg.value,\r\n            \"Insufficient Ether value sent.\"\r\n        );\r\n\r\n        for (uint256 i = 0; i < numCats; i++) {\r\n            uint256 mintIndex = totalSupply();\r\n            if (totalSupply() < maxSupply) {\r\n                _safeMint(msg.sender, mintIndex);\r\n                _createRandomCat(mintIndex);\r\n            }\r\n        }\r\n    }\r\n\r\n    function startQuest(\r\n        uint256 _maxClaimable,\r\n        uint256 _geneToMutateId,\r\n        uint256 _mutatedGene,\r\n        uint256 _difficulty,\r\n        uint256 _kiCost\r\n    ) public onlyOwner {\r\n        require(_geneToMutateId < 8, \"Incorrect gene id\");\r\n        require(\r\n            _mutatedGene > 9 && _mutatedGene < 100,\r\n            \"Incorrect mutated gene\"\r\n        );\r\n        // require(_difficulty < 100, \"Incorrect difficulty\"); commented out for testing purposes\r\n\r\n        uint256 id = _quests.length;\r\n        Quest memory newQuest = Quest(\r\n            id,\r\n            true,\r\n            _maxClaimable,\r\n            _geneToMutateId,\r\n            _mutatedGene,\r\n            _difficulty,\r\n            _kiCost,\r\n            0\r\n        );\r\n        _quests.push(newQuest);\r\n    }\r\n\r\n    function endQuest(uint256 questId) public onlyOwner {\r\n        Quest storage quest = _quests[questId];\r\n        quest.isActive = false;\r\n    }\r\n\r\n    function attemptQuest(\r\n        uint256 tokenId,\r\n        uint256 questId,\r\n        uint256 numAttempts\r\n    ) public {\r\n        require(\r\n            _isApprovedOrOwner(_msgSender(), tokenId),\r\n            \"ERC721: transfer caller is not owner nor approved\"\r\n        );\r\n        require(_quests[questId].isActive, \"Quest is not active\");\r\n        require(\r\n            _cats[tokenId].ki >= _quests[questId].kiCost * numAttempts,\r\n            \"Insufficient ki\"\r\n        );\r\n        require(\r\n            !_questRewardClaimed[questId][tokenId],\r\n            \"Grimalkin has already claimed quest reward\"\r\n        );\r\n        require(\r\n            _quests[questId].claimed < _quests[questId].maxClaimable,\r\n            \"Quest reward fully claimed\"\r\n        );\r\n\r\n        Cat storage cat = _cats[tokenId];\r\n        Quest storage quest = _quests[questId];\r\n        uint256 kiSpent = 0;\r\n\r\n        for (uint256 i = 0; i < numAttempts; i++) {\r\n            kiSpent += quest.kiCost;\r\n            if (_getRandomNum(100) + 1 > quest.difficulty) {\r\n                cat.dna = _getMutatedDna(\r\n                    cat.dna,\r\n                    quest.geneToMutateId,\r\n                    quest.mutatedGene\r\n                );\r\n                _questRewardClaimed[questId][tokenId] = true;\r\n                quest.claimed += 1;\r\n                break;\r\n            }\r\n        }\r\n        cat.ki -= kiSpent;\r\n    }\r\n\r\n    function startKiPotion(uint256 _kiToReplenish) public onlyOwner {\r\n        uint256 id = _quests.length;\r\n        KiPotion memory newKiPotion = KiPotion(\r\n            id,\r\n            true,\r\n            _kiToReplenish\r\n        );\r\n        _kiPotions.push(newKiPotion);\r\n    }\r\n\r\n    function endKiPotion(uint256 potionId) public onlyOwner {\r\n        KiPotion storage potion = _kiPotions[potionId];\r\n        potion.isActive = false;\r\n    }\r\n\r\n    function claimKiPotion(uint256 potionId, uint256 tokenId) public {\r\n        require(\r\n            _isApprovedOrOwner(_msgSender(), tokenId),\r\n            \"ERC721: transfer caller is not owner nor approved\"\r\n        );\r\n        require(_kiPotions[potionId].isActive, \"Potion is not active\");\r\n        require(\r\n            !_potionClaimed[potionId][tokenId],\r\n            \"Grimalkin has already claimed potion\"\r\n        );\r\n\r\n        Cat storage cat = _cats[tokenId];\r\n        cat.ki += _kiPotions[potionId].kiToReplenish;\r\n        _potionClaimed[potionId][tokenId] = true;\r\n\r\n    }\r\n\r\n    function setDropQuota(uint256 dropQuota_) public onlyOwner {\r\n        dropQuota = dropQuota_;\r\n    }\r\n\r\n    function setBaseURI(string memory baseURI_) public onlyOwner {\r\n        baseURI = baseURI_;\r\n    }\r\n\r\n    // to remove at deployment: use LINK VRF instead\r\n    function _getRandomNum(uint256 mod) internal view returns (uint256) {\r\n        uint256 randomNum = uint256(\r\n            keccak256(abi.encodePacked(block.timestamp, msg.sender))\r\n        );\r\n        return randomNum % mod;\r\n    }\r\n\r\n    // to remove at deployment: use LINK VRF instead\r\n    function _getRandomDna() internal view returns (uint256) {\r\n        uint256 randomNum = uint256(\r\n            keccak256(abi.encodePacked(block.timestamp, msg.sender))\r\n        ) % 10**16;\r\n        while (randomNum / 10**15 == 0) {\r\n            // ensures 16 digit dna\r\n            randomNum *= 10;\r\n        }\r\n        return randomNum;\r\n    }\r\n\r\n    function _createRandomCat(uint256 tokenId) internal {\r\n        require(\r\n            _exists(tokenId),\r\n            \"ERC721Metadata: URI query for nonexistent token\"\r\n        );\r\n        uint256 dna = _getRandomDna();\r\n        uint256 ki = 100;\r\n        Cat memory newCat = Cat(tokenId, dna, ki);\r\n        _cats[tokenId] = newCat;\r\n    }\r\n\r\n    function _getMutatedDna(\r\n        uint256 dna,\r\n        uint256 geneToMutateId,\r\n        uint256 mutatedGene\r\n    ) internal pure returns (uint256) {\r\n        uint256 firstHalfDna = (geneToMutateId == 0)\r\n            ? 0\r\n            : dna / 10**(16 - 2 * geneToMutateId);\r\n        uint256 secondHalfDna = dna % 10**(16 - 2 * (geneToMutateId + 1));\r\n        uint256 newDna = (firstHalfDna * 100 + mutatedGene) *\r\n            10**(16 - 2 * (geneToMutateId + 1)) +\r\n            secondHalfDna;\r\n        return newDna;\r\n    }\r\n\r\n    // ########################### TODO ###########################\r\n    function tokenURI(uint256 tokenId)\r\n        public\r\n        view\r\n        virtual\r\n        override\r\n        returns (string memory)\r\n    {\r\n        require(\r\n            _exists(tokenId),\r\n            \"ERC721Metadata: URI query for nonexistent token\"\r\n        );\r\n\r\n        return\r\n            bytes(baseURI).length > 0\r\n                ? string(abi.encodePacked(baseURI, _tokenURI[tokenId]))\r\n                : \"\";\r\n    }\r\n\r\n    function _baseURI() internal view override returns (string memory) {\r\n        return baseURI;\r\n    }\r\n\r\n    function withdraw() external onlyOwner {\r\n        address _owner = owner();\r\n        payable(_owner).transfer(address(this).balance);\r\n    }\r\n\r\n    function getCat(uint256 id) public view returns (Cat memory) {\r\n        return _cats[id];\r\n    }\r\n\r\n    function getAllCatsByOwner(address owner)\r\n        public\r\n        view\r\n        returns (Cat[] memory)\r\n    {\r\n        uint256 numOwned = balanceOf(owner);\r\n        Cat[] memory ownedCats = new Cat[](numOwned);\r\n        for (uint256 i = 0; i < numOwned; i++) {\r\n            ownedCats[i] = _cats[tokenOfOwnerByIndex(owner, i)];\r\n        }\r\n        return ownedCats;\r\n    }\r\n\r\n    function getQuest(uint256 id) public view returns (Quest memory) {\r\n        return _quests[id];\r\n    }\r\n\r\n    function getAllQuests() public view returns (Quest[] memory) {\r\n        return _quests;\r\n    }\r\n\r\n    function getQuestRewardClaimed(uint256 questId, uint256 tokenId)\r\n        public\r\n        view\r\n        returns (bool)\r\n    {\r\n        return _questRewardClaimed[questId][tokenId];\r\n    }\r\n}\r\n",
  "sourcePath": "/home/hakiem/Desktop/NFT/NFT_Truffle_React/contracts/Grimalkin.sol",
  "compiler": {
    "name": "solc",
    "version": "0.8.0+commit.c7dfd78e.Emscripten.clang"
  },
  "schemaVersion": "3.4.3",
  "updatedAt": "2021-09-21T08:26:30.257Z",
  "networkType": "ethereum",
  "devdoc": {
    "kind": "dev",
    "methods": {
      "approve(address,uint256)": {
        "details": "See {IERC721-approve}."
      },
      "balanceOf(address)": {
        "details": "See {IERC721-balanceOf}."
      },
      "getApproved(uint256)": {
        "details": "See {IERC721-getApproved}."
      },
      "isApprovedForAll(address,address)": {
        "details": "See {IERC721-isApprovedForAll}."
      },
      "name()": {
        "details": "See {IERC721Metadata-name}."
      },
      "owner()": {
        "details": "Returns the address of the current owner."
      },
      "ownerOf(uint256)": {
        "details": "See {IERC721-ownerOf}."
      },
      "renounceOwnership()": {
        "details": "Leaves the contract without owner. It will not be possible to call `onlyOwner` functions anymore. Can only be called by the current owner. NOTE: Renouncing ownership will leave the contract without an owner, thereby removing any functionality that is only available to the owner."
      },
      "safeTransferFrom(address,address,uint256)": {
        "details": "See {IERC721-safeTransferFrom}."
      },
      "safeTransferFrom(address,address,uint256,bytes)": {
        "details": "See {IERC721-safeTransferFrom}."
      },
      "setApprovalForAll(address,bool)": {
        "details": "See {IERC721-setApprovalForAll}."
      },
      "supportsInterface(bytes4)": {
        "details": "See {IERC165-supportsInterface}."
      },
      "symbol()": {
        "details": "See {IERC721Metadata-symbol}."
      },
      "tokenByIndex(uint256)": {
        "details": "See {IERC721Enumerable-tokenByIndex}."
      },
      "tokenOfOwnerByIndex(address,uint256)": {
        "details": "See {IERC721Enumerable-tokenOfOwnerByIndex}."
      },
      "tokenURI(uint256)": {
        "details": "See {IERC721Metadata-tokenURI}."
      },
      "totalSupply()": {
        "details": "See {IERC721Enumerable-totalSupply}."
      },
      "transferFrom(address,address,uint256)": {
        "details": "See {IERC721-transferFrom}."
      },
      "transferOwnership(address)": {
        "details": "Transfers ownership of the contract to a new account (`newOwner`). Can only be called by the current owner."
      }
    },
    "version": 1
  },
  "userdoc": {
    "kind": "user",
    "methods": {
      "mintGrimalkin(uint256)": {
        "notice": "Mint cat(s) to sender's wallet."
      },
      "reserveGrimalkin(uint256)": {
        "notice": "Reserve n cats"
      }
    },
    "version": 1
  }
}